{
  "contractName": "Train_tickets",
  "abi": [
    {
      "inputs": [
        {
          "internalType": "uint256",
          "name": "set_Price",
          "type": "uint256"
        }
      ],
      "stateMutability": "nonpayable",
      "type": "constructor"
    },
    {
      "anonymous": false,
      "inputs": [
        {
          "indexed": false,
          "internalType": "address",
          "name": "member",
          "type": "address"
        }
      ],
      "name": "Member_Registerd",
      "type": "event"
    },
    {
      "anonymous": false,
      "inputs": [
        {
          "indexed": false,
          "internalType": "uint256",
          "name": "Ticket_ID",
          "type": "uint256"
        },
        {
          "indexed": false,
          "internalType": "address",
          "name": "buyer",
          "type": "address"
        }
      ],
      "name": "Ticket_Purchased",
      "type": "event"
    },
    {
      "inputs": [
        {
          "internalType": "address",
          "name": "",
          "type": "address"
        }
      ],
      "name": "members",
      "outputs": [
        {
          "internalType": "bool",
          "name": "",
          "type": "bool"
        }
      ],
      "stateMutability": "view",
      "type": "function",
      "constant": true
    },
    {
      "inputs": [],
      "name": "ticketPrice",
      "outputs": [
        {
          "internalType": "uint256",
          "name": "",
          "type": "uint256"
        }
      ],
      "stateMutability": "view",
      "type": "function",
      "constant": true
    },
    {
      "inputs": [
        {
          "internalType": "address",
          "name": "",
          "type": "address"
        }
      ],
      "name": "tickets",
      "outputs": [
        {
          "internalType": "uint256",
          "name": "ticketId",
          "type": "uint256"
        },
        {
          "internalType": "address",
          "name": "buyer",
          "type": "address"
        }
      ],
      "stateMutability": "view",
      "type": "function",
      "constant": true
    },
    {
      "inputs": [
        {
          "internalType": "address",
          "name": "",
          "type": "address"
        }
      ],
      "name": "wallets",
      "outputs": [
        {
          "internalType": "uint256",
          "name": "",
          "type": "uint256"
        }
      ],
      "stateMutability": "view",
      "type": "function",
      "constant": true
    },
    {
      "inputs": [],
      "name": "register",
      "outputs": [],
      "stateMutability": "nonpayable",
      "type": "function"
    },
    {
      "inputs": [],
      "name": "buy_ticket",
      "outputs": [],
      "stateMutability": "payable",
      "type": "function",
      "payable": true
    },
    {
      "inputs": [
        {
          "internalType": "uint256",
          "name": "new_Price",
          "type": "uint256"
        }
      ],
      "name": "set_price",
      "outputs": [],
      "stateMutability": "nonpayable",
      "type": "function"
    },
    {
      "inputs": [],
      "name": "set_balance",
      "outputs": [],
      "stateMutability": "payable",
      "type": "function",
      "payable": true
    },
    {
      "inputs": [],
      "name": "get_balnace",
      "outputs": [
        {
          "internalType": "uint256",
          "name": "",
          "type": "uint256"
        }
      ],
      "stateMutability": "view",
      "type": "function",
      "constant": true
    },
    {
      "inputs": [
        {
          "internalType": "uint256",
          "name": "amount",
          "type": "uint256"
        }
      ],
      "name": "withdraw",
      "outputs": [],
      "stateMutability": "nonpayable",
      "type": "function"
    },
    {
      "inputs": [],
      "name": "get_price",
      "outputs": [
        {
          "internalType": "uint256",
          "name": "",
          "type": "uint256"
        }
      ],
      "stateMutability": "view",
      "type": "function",
      "constant": true
    }
  ],
  "bytecode": "0x60806040523480156200001157600080fd5b50604051620012e1380380620012e18339818101604052810190620000379190620000c5565b336000806101000a81548173ffffffffffffffffffffffffffffffffffffffff021916908373ffffffffffffffffffffffffffffffffffffffff1602179055508060018190555050620000f7565b600080fd5b6000819050919050565b6200009f816200008a565b8114620000ab57600080fd5b50565b600081519050620000bf8162000094565b92915050565b600060208284031215620000de57620000dd62000085565b5b6000620000ee84828501620000ae565b91505092915050565b6111da80620001076000396000f3fe60806040526004361061009c5760003560e01c80632c4b5586116100645780632c4b5586146101745780632e1a7d4d1461017e578063686417d3146101a75780636dcbf2a3146101b15780637a3a46ba146101ef57806389b08f111461021a5761009c565b806308ae4b0c146100a157806311f37ceb146100de5780631209b1f6146101095780631aa3a0081461013457806328bf794d1461014b575b600080fd5b3480156100ad57600080fd5b506100c860048036038101906100c39190610c89565b610257565b6040516100d59190610cd1565b60405180910390f35b3480156100ea57600080fd5b506100f3610277565b6040516101009190610d05565b60405180910390f35b34801561011557600080fd5b5061011e610281565b60405161012b9190610d05565b60405180910390f35b34801561014057600080fd5b50610149610287565b005b34801561015757600080fd5b50610172600480360381019061016d9190610d4c565b6103a5565b005b61017c61043d565b005b34801561018a57600080fd5b506101a560048036038101906101a09190610d4c565b6104d8565b005b6101af61063d565b005b3480156101bd57600080fd5b506101d860048036038101906101d39190610c89565b610b83565b6040516101e6929190610d88565b60405180910390f35b3480156101fb57600080fd5b50610204610bc7565b6040516102119190610d05565b60405180910390f35b34801561022657600080fd5b50610241600480360381019061023c9190610c89565b610c0e565b60405161024e9190610d05565b60405180910390f35b60046020528060005260406000206000915054906101000a900460ff1681565b6000600154905090565b60015481565b600460003373ffffffffffffffffffffffffffffffffffffffff1673ffffffffffffffffffffffffffffffffffffffff16815260200190815260200160002060009054906101000a900460ff1615610314576040517f08c379a000000000000000000000000000000000000000000000000000000000815260040161030b90610e0e565b60405180910390fd5b6001600460003373ffffffffffffffffffffffffffffffffffffffff1673ffffffffffffffffffffffffffffffffffffffff16815260200190815260200160002060006101000a81548160ff0219169083151502179055507f0abe2aec51b90a68c135403aa36af14610e38b293c19ae51eeddaf7a064be6c23360405161039b9190610e2e565b60405180910390a1565b3373ffffffffffffffffffffffffffffffffffffffff1660008054906101000a900473ffffffffffffffffffffffffffffffffffffffff1673ffffffffffffffffffffffffffffffffffffffff1614610433576040517f08c379a000000000000000000000000000000000000000000000000000000000815260040161042a90610e95565b60405180910390fd5b8060018190555050565b60003411610480576040517f08c379a000000000000000000000000000000000000000000000000000000000815260040161047790610f27565b60405180910390fd5b34600260003373ffffffffffffffffffffffffffffffffffffffff1673ffffffffffffffffffffffffffffffffffffffff16815260200190815260200160002060008282546104cf9190610f76565b92505081905550565b6000811161051b576040517f08c379a000000000000000000000000000000000000000000000000000000000815260040161051290611018565b60405180910390fd5b80600260003373ffffffffffffffffffffffffffffffffffffffff1673ffffffffffffffffffffffffffffffffffffffff16815260200190815260200160002054101561059d576040517f08c379a000000000000000000000000000000000000000000000000000000000815260040161059490611084565b60405180910390fd5b80600260003373ffffffffffffffffffffffffffffffffffffffff1673ffffffffffffffffffffffffffffffffffffffff16815260200190815260200160002060008282546105ec91906110a4565b925050819055503373ffffffffffffffffffffffffffffffffffffffff166108fc829081150290604051600060405180830381858888f19350505050158015610639573d6000803e3d6000fd5b5050565b6000600260003373ffffffffffffffffffffffffffffffffffffffff1673ffffffffffffffffffffffffffffffffffffffff16815260200190815260200160002054116106bf576040517f08c379a00000000000000000000000000000000000000000000000000000000081526004016106b690611124565b60405180910390fd5b60011515600460003373ffffffffffffffffffffffffffffffffffffffff1673ffffffffffffffffffffffffffffffffffffffff16815260200190815260200160002060009054906101000a900460ff161515036109545760026001546107269190611173565b600260003373ffffffffffffffffffffffffffffffffffffffff1673ffffffffffffffffffffffffffffffffffffffff1681526020019081526020016000205410156107a7576040517f08c379a000000000000000000000000000000000000000000000000000000000815260040161079e90611124565b60405180910390fd5b60026001546107b69190611173565b600260003373ffffffffffffffffffffffffffffffffffffffff1673ffffffffffffffffffffffffffffffffffffffff168152602001908152602001600020600082825461080491906110a4565b9250508190555033600360003373ffffffffffffffffffffffffffffffffffffffff1673ffffffffffffffffffffffffffffffffffffffff16815260200190815260200160002060010160006101000a81548173ffffffffffffffffffffffffffffffffffffffff021916908373ffffffffffffffffffffffffffffffffffffffff1602179055506001600360003373ffffffffffffffffffffffffffffffffffffffff1673ffffffffffffffffffffffffffffffffffffffff168152602001908152602001600020600001819055507f91530f37e41ac65506c6b4e56dc748a5b7d6f4bf53eb40067c9f1fe4b01c22dd600360003373ffffffffffffffffffffffffffffffffffffffff1673ffffffffffffffffffffffffffffffffffffffff1681526020019081526020016000206000015433604051610947929190610d88565b60405180910390a1610b81565b600154600260003373ffffffffffffffffffffffffffffffffffffffff1673ffffffffffffffffffffffffffffffffffffffff1681526020019081526020016000205410156109d8576040517f08c379a00000000000000000000000000000000000000000000000000000000081526004016109cf90611124565b60405180910390fd5b60026001546109e79190611173565b600260003373ffffffffffffffffffffffffffffffffffffffff1673ffffffffffffffffffffffffffffffffffffffff1681526020019081526020016000206000828254610a3591906110a4565b9250508190555033600360003373ffffffffffffffffffffffffffffffffffffffff1673ffffffffffffffffffffffffffffffffffffffff16815260200190815260200160002060010160006101000a81548173ffffffffffffffffffffffffffffffffffffffff021916908373ffffffffffffffffffffffffffffffffffffffff1602179055506001600360003373ffffffffffffffffffffffffffffffffffffffff1673ffffffffffffffffffffffffffffffffffffffff168152602001908152602001600020600001819055507f91530f37e41ac65506c6b4e56dc748a5b7d6f4bf53eb40067c9f1fe4b01c22dd600360003373ffffffffffffffffffffffffffffffffffffffff1673ffffffffffffffffffffffffffffffffffffffff1681526020019081526020016000206000015433604051610b78929190610d88565b60405180910390a15b565b60036020528060005260406000206000915090508060000154908060010160009054906101000a900473ffffffffffffffffffffffffffffffffffffffff16905082565b6000600260003373ffffffffffffffffffffffffffffffffffffffff1673ffffffffffffffffffffffffffffffffffffffff16815260200190815260200160002054905090565b60026020528060005260406000206000915090505481565b600080fd5b600073ffffffffffffffffffffffffffffffffffffffff82169050919050565b6000610c5682610c2b565b9050919050565b610c6681610c4b565b8114610c7157600080fd5b50565b600081359050610c8381610c5d565b92915050565b600060208284031215610c9f57610c9e610c26565b5b6000610cad84828501610c74565b91505092915050565b60008115159050919050565b610ccb81610cb6565b82525050565b6000602082019050610ce66000830184610cc2565b92915050565b6000819050919050565b610cff81610cec565b82525050565b6000602082019050610d1a6000830184610cf6565b92915050565b610d2981610cec565b8114610d3457600080fd5b50565b600081359050610d4681610d20565b92915050565b600060208284031215610d6257610d61610c26565b5b6000610d7084828501610d37565b91505092915050565b610d8281610c4b565b82525050565b6000604082019050610d9d6000830185610cf6565b610daa6020830184610d79565b9392505050565b600082825260208201905092915050565b7f596f752061726520616c72656164792061206d656d6265720000000000000000600082015250565b6000610df8601883610db1565b9150610e0382610dc2565b602082019050919050565b60006020820190508181036000830152610e2781610deb565b9050919050565b6000602082019050610e436000830184610d79565b92915050565b7f4163636573732044656e69656400000000000000000000000000000000000000600082015250565b6000610e7f600d83610db1565b9150610e8a82610e49565b602082019050919050565b60006020820190508181036000830152610eae81610e72565b9050919050565b7f4d757374206465706f73697420616d6f756e74206d6f7265207468616e207a6560008201527f726f210000000000000000000000000000000000000000000000000000000000602082015250565b6000610f11602383610db1565b9150610f1c82610eb5565b604082019050919050565b60006020820190508181036000830152610f4081610f04565b9050919050565b7f4e487b7100000000000000000000000000000000000000000000000000000000600052601160045260246000fd5b6000610f8182610cec565b9150610f8c83610cec565b9250827fffffffffffffffffffffffffffffffffffffffffffffffffffffffffffffffff03821115610fc157610fc0610f47565b5b828201905092915050565b7f43616e206e6f7420776974686472617720300000000000000000000000000000600082015250565b6000611002601283610db1565b915061100d82610fcc565b602082019050919050565b6000602082019050818103600083015261103181610ff5565b9050919050565b7f54726173616374696f6e204661696c6564000000000000000000000000000000600082015250565b600061106e601183610db1565b915061107982611038565b602082019050919050565b6000602082019050818103600083015261109d81611061565b9050919050565b60006110af82610cec565b91506110ba83610cec565b9250828210156110cd576110cc610f47565b5b828203905092915050565b7f54616e73616374696f6e204661696c6564000000000000000000000000000000600082015250565b600061110e601183610db1565b9150611119826110d8565b602082019050919050565b6000602082019050818103600083015261113d81611101565b9050919050565b7f4e487b7100000000000000000000000000000000000000000000000000000000600052601260045260246000fd5b600061117e82610cec565b915061118983610cec565b92508261119957611198611144565b5b82820490509291505056fea26469706673582212205d196974f896dceceacf633515c45210ee55b5b18c78b73baad6edbdd0c9b0e264736f6c634300080d0033",
  "immutableReferences": {},
  "source": "// SPDX-License-Identifier: GPL-3.0\r\npragma solidity ^0.8.0;\r\n\r\ncontract Train_tickets {\r\n    address owner;\r\n    uint256 public ticketPrice;\r\n\r\n    struct Ticket {\r\n        uint256 ticketId;\r\n        address buyer;\r\n    }\r\n\r\n    mapping(address => uint256) public wallets;\r\n    mapping(address => Ticket) public tickets;\r\n    mapping(address => bool) public members;\r\n\r\n    event Ticket_Purchased(uint256 Ticket_ID, address buyer);\r\n    event Member_Registerd(address member);\r\n\r\n    constructor(uint256 set_Price) {\r\n        owner = msg.sender;\r\n        ticketPrice = set_Price;\r\n    }\r\n\r\n    function register() external {\r\n        require(!members[msg.sender], \"You are already a member\");\r\n\r\n        members[msg.sender] = true;\r\n        emit Member_Registerd(msg.sender);\r\n    }\r\n\r\n    function buy_ticket() public payable {\r\n        require(wallets[msg.sender] > 0, \"Tansaction Failed\");\r\n\r\n        if (members[msg.sender] == true) {\r\n            require(\r\n                wallets[msg.sender] >= ticketPrice / 2,\r\n                \"Tansaction Failed\"\r\n            );\r\n            wallets[msg.sender] -= ticketPrice / 2;\r\n            tickets[msg.sender].buyer = msg.sender;\r\n            tickets[msg.sender].ticketId = 1;\r\n            emit Ticket_Purchased(tickets[msg.sender].ticketId, msg.sender);\r\n        } else {\r\n            require(wallets[msg.sender] >= ticketPrice, \"Tansaction Failed\");\r\n            wallets[msg.sender] -= ticketPrice / 2;\r\n            tickets[msg.sender].buyer = msg.sender;\r\n            tickets[msg.sender].ticketId = 1;\r\n            emit Ticket_Purchased(tickets[msg.sender].ticketId, msg.sender);\r\n        }\r\n    }\r\n\r\n    function set_price(uint new_Price) public {\r\n        require(owner == msg.sender, \"Access Denied\");\r\n        ticketPrice = new_Price;\r\n    }\r\n\r\n    function set_balance() public payable {\r\n        require(msg.value > 0, \"Must deposit amount more than zero!\");\r\n        wallets[msg.sender] += msg.value;\r\n    }\r\n\r\n    function get_balnace() public view returns (uint256) {\r\n        return wallets[msg.sender];\r\n    }\r\n\r\n    function withdraw(uint256 amount) public {\r\n        require(amount > 0, \"Can not withdraw 0\");\r\n        require(wallets[msg.sender] >= amount, \"Trasaction Failed\");\r\n\r\n        wallets[msg.sender] -= amount;\r\n        payable(msg.sender).transfer(amount);\r\n    }\r\n\r\n    function get_price() public view returns (uint256) {\r\n        return ticketPrice;\r\n    }\r\n}\r\n",
  "sourcePath": "C:\\Users\\matth\\Documents\\GitHub\\Train_ticket_system\\Train_ticket-contract\\contracts\\Train_ticket.sol",
  "compiler": {
    "name": "solc",
    "version": "0.8.13+commit.abaa5c0e.Emscripten.clang"
  },
  "schemaVersion": "3.4.16",
  "updatedAt": "2023-11-17T01:09:26.091Z",
  "networkType": "ethereum",
  "devdoc": {
    "kind": "dev",
    "methods": {},
    "version": 1
  },
  "userdoc": {
    "kind": "user",
    "methods": {},
    "version": 1
  }
}